{
  "contractName": "SupplyChain",
  "abi": [
    {
      "anonymous": false,
      "inputs": [
        {
          "indexed": false,
          "name": "index",
          "type": "uint256"
        }
      ],
      "name": "Added",
      "type": "event",
      "signature": "0x64a55044d1f2eddebe1b90e8e2853e8e96931cefadbfa0b2ceb34bee36061941"
    },
    {
      "constant": false,
      "inputs": [
        {
          "name": "_a",
          "type": "string"
        },
        {
          "name": "_b",
          "type": "string"
        }
      ],
      "name": "concat",
      "outputs": [
        {
          "name": "",
          "type": "string"
        }
      ],
      "payable": false,
      "stateMutability": "nonpayable",
      "type": "function",
      "signature": "0x89c19ddb"
    },
    {
      "constant": false,
      "inputs": [
        {
          "name": "_productId",
          "type": "uint256"
        },
        {
          "name": "info",
          "type": "string"
        }
      ],
      "name": "addState",
      "outputs": [
        {
          "name": "",
          "type": "string"
        }
      ],
      "payable": false,
      "stateMutability": "nonpayable",
      "type": "function",
      "signature": "0x453bccb6"
    },
    {
      "constant": false,
      "inputs": [
        {
          "name": "_text",
          "type": "string"
        },
        {
          "name": "_date",
          "type": "string"
        },
        {
          "name": "_info",
          "type": "string"
        }
      ],
      "name": "newItem",
      "outputs": [
        {
          "name": "",
          "type": "bool"
        }
      ],
      "payable": false,
      "stateMutability": "nonpayable",
      "type": "function",
      "signature": "0x0aaa570c"
    },
    {
      "constant": false,
      "inputs": [
        {
          "name": "_productId",
          "type": "uint256"
        }
      ],
      "name": "searchProduct",
      "outputs": [
        {
          "name": "",
          "type": "string"
        }
      ],
      "payable": false,
      "stateMutability": "nonpayable",
      "type": "function",
      "signature": "0x3cde01b5"
    },
    {
      "constant": true,
      "inputs": [],
      "name": "sayHello",
      "outputs": [
        {
          "name": "",
          "type": "string"
        }
      ],
      "payable": false,
      "stateMutability": "pure",
      "type": "function",
      "signature": "0xef5fb05b"
    }
  ],
  "bytecode": "0x6080604052600060025534801561001557600080fd5b50610b10806100256000396000f3fe60806040526004361061006c5763ffffffff7c01000000000000000000000000000000000000000000000000000000006000350416630aaa570c81146100715780633cde01b514610246578063453bccb6146102e557806389c19ddb1461039f578063ef5fb05b146104d9575b600080fd5b34801561007d57600080fd5b506102326004803603606081101561009457600080fd5b8101906020810181356401000000008111156100af57600080fd5b8201836020820111156100c157600080fd5b803590602001918460018302840111640100000000831117156100e357600080fd5b91908080601f016020809104026020016040519081016040528093929190818152602001838380828437600092019190915250929594936020810193503591505064010000000081111561013657600080fd5b82018360208201111561014857600080fd5b8035906020019184600183028401116401000000008311171561016a57600080fd5b91908080601f01602080910402602001604051908101604052809392919081815260200183838082843760009201919091525092959493602081019350359150506401000000008111156101bd57600080fd5b8201836020820111156101cf57600080fd5b803590602001918460018302840111640100000000831117156101f157600080fd5b91908080601f0160208091040260200160405190810160405280939291908181526020018383808284376000920191909152509295506104ee945050505050565b604080519115158252519081900360200190f35b34801561025257600080fd5b506102706004803603602081101561026957600080fd5b50356105b5565b6040805160208082528351818301528351919283929083019185019080838360005b838110156102aa578181015183820152602001610292565b50505050905090810190601f1680156102d75780820380516001836020036101000a031916815260200191505b509250505060405180910390f35b3480156102f157600080fd5b506102706004803603604081101561030857600080fd5b8135919081019060408101602082013564010000000081111561032a57600080fd5b82018360208201111561033c57600080fd5b8035906020019184600183028401116401000000008311171561035e57600080fd5b91908080601f0160208091040260200160405190810160405280939291908181526020018383808284376000920191909152509295506107f8945050505050565b3480156103ab57600080fd5b50610270600480360360408110156103c257600080fd5b8101906020810181356401000000008111156103dd57600080fd5b8201836020820111156103ef57600080fd5b8035906020019184600183028401116401000000008311171561041157600080fd5b91908080601f016020809104026020016040519081016040528093929190818152602001838380828437600092019190915250929594936020810193503591505064010000000081111561046457600080fd5b82018360208201111561047657600080fd5b8035906020019184600183028401116401000000008311171561049857600080fd5b91908080601f0160208091040260200160405190810160405280939291908181526020018383808284376000920191909152509295506108bb945050505050565b3480156104e557600080fd5b506102706109fc565b6001805480820182556000908152602081815260408220805473ffffffffffffffffffffffffffffffffffffffff1916331781556004810183905586519293909261053f9291840191880190610a34565b506002805490820155835161055d9060038301906020870190610a34565b5061056c8160020154846107f8565b50600280546001810190915560408051918252517f64a55044d1f2eddebe1b90e8e2853e8e96931cefadbfa0b2ceb34bee360619419181900360200190a1506001949350505050565b6002546060908211156105c757600080fd5b604080518082018252600e81527f50726f64756374204e616d653a200000000000000000000000000000000000006020808301919091526000858152808252839020600190810180548551600293821615610100026000190190911692909204601f810184900484028301840190955284825292936106a09385939091908301828280156106965780601f1061066b57610100808354040283529160200191610696565b820191906000526020600020905b81548152906001019060200180831161067957829003601f168201915b50505050506108bb565b90506106e1816040805190810160405280601681526020017f3c62723e4d616e756661637475726520446174653a20000000000000000000008152506108bb565b6000848152602081815260409182902060030180548351601f60026000196101006001861615020190931692909204918201849004840281018401909452808452939450610752938593928301828280156106965780601f1061066b57610100808354040283529160200191610696565b905060005b6000848152602081905260409020600401548110156107f1576000848152602081815260408083208484526005018252918290208054835160026001831615610100026000190190921691909104601f81018490048402820184019094528381526107e79386939192918301828280156106965780601f1061066b57610100808354040283529160200191610696565b9150600101610757565b5092915050565b60025460609083111561080a57600080fd5b610812610ab2565b506040805180820182528381523360208083019190915260008681528082528381206004810154825260050182529290922081518051929384936108599284920190610a34565b506020918201516001918201805473ffffffffffffffffffffffffffffffffffffffff191673ffffffffffffffffffffffffffffffffffffffff9092169190911790556000958652908590526040909420600401805490940190935550919050565b6060808390506060839050606081518351016040519080825280601f01601f1916602001820160405280156108f7576020820181803883390190505b509050806000805b855181101561097557858181518110151561091657fe5b90602001015160f860020a900460f860020a02838380600101945081518110151561093d57fe5b9060200101907effffffffffffffffffffffffffffffffffffffffffffffffffffffffffffff1916908160001a9053506001016108ff565b5060005b84518110156109ef57848181518110151561099057fe5b90602001015160f860020a900460f860020a0283838060010194508151811015156109b757fe5b9060200101907effffffffffffffffffffffffffffffffffffffffffffffffffffffffffffff1916908160001a905350600101610979565b5090979650505050505050565b60408051808201909152600c81527f48656c6c6f20576f726c6421000000000000000000000000000000000000000060208201525b90565b828054600181600116156101000203166002900490600052602060002090601f016020900481019282601f10610a7557805160ff1916838001178555610aa2565b82800160010185558215610aa2579182015b82811115610aa2578251825591602001919060010190610a87565b50610aae929150610aca565b5090565b60408051808201909152606081526000602082015290565b610a3191905b80821115610aae5760008155600101610ad056fea165627a7a72305820e1075438e0f6e61515dec4812ac4c5fed2110daa9b07ade1bb650fee527c98850029",
  "source": "// SPDX-License-Identifier: MIT\npragma solidity >=0.4.22 <0.9.0;\n\ncontract SupplyChain {\n    \n    event Added(uint256 index);\n    \n    struct State{\n        string description;\n        address person;\n    }\n    \n    struct Product{\n        address creator;\n        string productName;\n        uint256 productId;\n        string date;\n        uint256 totalStates;\n        mapping (uint256 => State) positions;\n    }\n    \n    mapping(uint => Product) allProducts;\n    uint numOfItems;\n    uint256 items=0;\n    \n    function concat(string memory _a, string memory _b) public returns (string memory){\n        bytes memory bytes_a = bytes(_a);\n        bytes memory bytes_b = bytes(_b);\n        string memory length_ab = new string(bytes_a.length + bytes_b.length);\n        bytes memory bytes_c = bytes(length_ab);\n        uint k = 0;\n        for (uint i = 0; i < bytes_a.length; i++) bytes_c[k++] = bytes_a[i];\n        for (uint i = 0; i < bytes_b.length; i++) bytes_c[k++] = bytes_b[i];\n        return string(bytes_c);\n    }\n\n    function addState(uint _productId, string memory info) public returns (string memory) {\n        require(_productId<=items);\n        State memory newState = State({person: msg.sender, description: info});\n        allProducts[_productId].positions[ allProducts[_productId].totalStates ]=newState;\n        allProducts[_productId].totalStates = allProducts[_productId].totalStates +1;\n        return info;\n    }\n    \n    function newItem(string memory _text, string memory _date, string memory _info) public returns (bool) {\n        Product storage p = allProducts[numOfItems++];\n        p.creator = msg.sender;\n        p.totalStates = 0;\n        p.productName = _text;\n        p.productId = items;\n        p.date = _date;\n        addState(p.productId, _info );\n        //Product memory newItem = Product({creator: msg.sender, totalStates: 0,productName: _text, productId: items, date: _date});\n        //allProducts[items]=newItem;\n        items = items+1;\n        emit Added(items-1);\n        return true;\n    }\n    \n    function searchProduct(uint _productId) public returns (string memory) {\n\n        require(_productId<=items);\n        string memory output=\"Product Name: \";\n        output=concat(output, allProducts[_productId].productName);\n        output=concat(output, \"<br>Manufacture Date: \");\n        output=concat(output, allProducts[_productId].date);\n        \n        for (uint256 j=0; j<allProducts[_productId].totalStates; j++){\n            output=concat(output, allProducts[_productId].positions[j].description);\n        }\n        return output;\n        \n    }\n\n    function sayHello() public pure returns (string memory) {\n        return 'Hello World!';\n    }\n    \n}",
  "sourcePath": "/home/hyperloop/dev/ether-flask/supply/contracts/SupplyChain.sol",
  "compiler": {
    "name": "solc",
    "version": "0.5.0+commit.1d4f565a.Emscripten.clang"
  },
  "schemaVersion": "3.0.1",
  "updatedAt": "2021-05-09T04:02:20.479Z",
  "devdoc": {
    "methods": {}
  },
  "userdoc": {
    "methods": {}
  }
}